:020000040000FA
:100000000C9462000C948A000C948A000C948A0070
:100010000C948A000C948A000C948A000C948A0038
:100020000C948A000C948A000C948A000C948A0028
:100030000C948A000C948A000C948A000C948A0018
:100040000C9491030C948A000C948A000C948A00FE
:100050000C948A000C948A000C948A000C948A00F8
:100060000C948A000C948A000000000024002700F1
:100070002A0000000000250028002B0000000000DE
:1000800023002600290004040404040404040202DA
:100090000202020203030303030301020408102007
:1000A0004080010204081020010204081020000012
:1000B0000008000201000003040700000000000027
:1000C00000001A0611241FBECFEFD8E0DEBFCDBF5F
:1000D00011E0A0E0B1E0E4E7FDE002C005900D9280
:1000E000A436B107D9F721E0A4E6B1E001C01D9222
:1000F000A63FB207E1F710E0C2E6D0E004C02197C6
:10010000FE010E94B206C136D107C9F70E94DB0387
:100110000C94B8060C94000096E0899FD00111243D
:10012000A159BE4F90967C936E935F9791E0919604
:100130009C939197E091DC01F091DD019091DB01BE
:10014000992339F0309751F0811108C080918B01CB
:100150000994309719F05C968C91FACF0895CF925C
:10016000DF92EF92FF920F931F9396E0899FF00129
:100170001124E159FE4F11A2278D30A12130310504
:1001800051F178F02230310509F451C023303105A6
:1001900009F452C01F910F91FF90EF90DF90CF9024
:1001A00008956623B9F361E070E00E948C002FB7D8
:1001B000F89480916B0190916C01A0916D01B091C8
:1001C0006E012FBF8093C7019093C801A093C9010E
:1001D000B093CA01DFCF9FB7F894C0906B01D09065
:1001E0006C01E0906D01F0906E019FBF0091C7011E
:1001F0001091C8012091C9013091CA01C01AD10AD9
:10020000E20AF30A0091D9011091DA0130E020E00E
:100210000C151D052E053F0550F462E070E01F919E
:100220000F91FF90EF90DF90CF900C948C006111B4
:10023000B1CF63E070E0F3CF70E060E0F0CF8330E7
:1002400081F028F4813099F08230A9F00895873048
:10025000A9F08830C9F08430B1F4809180008F7D9E
:1002600003C0809180008F7780938000089584B5CB
:100270008F7784BD089584B58F7DFBCF8091B000CA
:100280008F778093B00008958091B0008F7DF9CF73
:10029000CF93DF93282F30E0F901E255FF4F84918F
:1002A000F901E656FF4FD491F901EA57FF4FC49187
:1002B000CC23A1F081110E941F01EC2FF0E0EE0F82
:1002C000FF1FE458FF4FA591B491EC91ED2381E01D
:1002D00090E009F480E0DF91CF91089580E090E014
:1002E000FACF1F93CF93DF93282F30E0F901E25527
:1002F000FF4F8491F901E656FF4FD491F901EA5777
:10030000FF4FC491CC23A9F0162F81110E941F0129
:10031000EC2FF0E0EE0FFF1FEE58FF4FA591B491C8
:100320008FB7F894EC91111108C0D095DE23DC93BF
:100330008FBFDF91CF911F910895DE2BF8CFCF9320
:10034000DF9390E0FC01E656FF4F24918A579F4FC0
:10035000FC0184918823C9F090E0880F991FFC016B
:10036000E859FF4FA591B491FC01EE58FF4FC5919C
:10037000D49161110DC09FB7F8948C912095822380
:100380008C938881282328839FBFDF91CF91089584
:10039000623051F49FB7F8943C91822F809583236B
:1003A0008C93E8812E2BEFCF8FB7F894EC912E2B06
:1003B0002C938FBFEACF3FB7F8948091670190915B
:1003C0006801A0916901B0916A0126B5A89B05C09A
:1003D0002F3F19F00196A11DB11D3FBFBA2FA92FC4
:1003E000982F8827BC01CD01620F711D811D911DC1
:1003F00042E0660F771F881F991F4A95D1F708952D
:10040000862F642F0C949F01862F642F0C9471010A
:10041000862F0C944801AF92BF92CF92DF92EF9259
:10042000FF920F931F93CF93DF936C017B018B019E
:10043000040F151FEB015E01AE18BF08C017D107EE
:1004400059F06991D601ED91FC910190F081E02D78
:10045000C6010995892B79F7C501DF91CF911F91CD
:100460000F91FF90EF90DF90CF90BF90AF900895E5
:10047000089590E080E00895FC0101900020E9F7E4
:100480003197AF01481B590BBC018EED91E00C94E4
:100490000B02CF93DF93EC0160E08E810E9471012B
:1004A00061E08E810E94710160E08E810E94710185
:1004B0008BE891E00197F1F7DF91CF910895CF920A
:1004C000DF92EF92FF920F931F93CF93DF936C0114
:1004D0007C0187E0E80EF11CD0E0C0E0062F10E0C0
:1004E000B8010C2E02C0759567950A94E2F7617009
:1004F000F70181917F010E9471012196C430D105DD
:1005000079F7C601DF91CF911F910F91FF90EF9086
:10051000DF90CF900C944902CF92DF92EF92FF923E
:100520000F931F93CF93DF93EC01F62E642F8C81F2
:100530000E9471018D818F3F19F060E00E9471016E
:100540000F2D10E08F8584FF25C06E0187E0C80E57
:10055000D11CF12CE12CB8010E2C02C075956795C9
:100560000A94E2F76170F60181916F010E947101B6
:10057000FFEFEF1AFF0A88E0E816F10461F7CE01F9
:10058000DF91CF911F910F91FF90EF90DF90CF906F
:100590000C944902B80184E0759567958A95E1F756
:1005A000CE010E945F026F2DCE01DF91CF911F918E
:1005B0000F91FF90EF90DF90CF900C945F0240E09E
:1005C000682F8EED91E00C948C02CF93DF938230F4
:1005D00029F49091ED0198609093ED018093F101E1
:1005E0001092F20180E48093F30180E18093F401A2
:1005F00080E58093F50161E08091E2010E949F0116
:100600008091E3018F3F19F061E00E949F0161E05A
:100610008091E4010E949F01CEEDD1E09E012E5D0C
:1006200031408091ED0184FD0BC084E090E0219683
:100630002817390744F461E08E810E949F01EECFB4
:1006400088E090E0F4CF8BE39DE00197F1F760E064
:100650008091E2010E94710160E08091E4010E94BA
:1006600071018091E3018F3F19F060E00E947101F8
:100670008091ED0184FD39C063E08EED91E00E9430
:100680005F02CBE4D6E4CE010197F1F763E08EED93
:1006900091E00E945F022197F1F763E08EED91E017
:1006A0000E945F0283E592E00197F1F762E08EED30
:1006B00091E00E945F028091ED0180620E94DF0262
:1006C00084E08093EE018CE00E94DF0281E00E94D2
:1006D000DF028BE39FE10197F1F782E08093EF0166
:1006E00086E0DF91CF910C94DF0280620E94DF02EE
:1006F0008BE496E40197F1F78091ED0180620E940E
:10070000DF0283E592E00197F1F78091ED018062CD
:100710000E94DF02D0CF41E00E948C0281E090E095
:1007200008951F920F920FB60F9211242F933F93AB
:100730008F939F93AF93BF9380916B0190916C01C6
:10074000A0916D01B0916E013091660123E0230FFD
:100750002D3758F50196A11DB11D20936601809398
:100760006B0190936C01A0936D01B0936E01809129
:10077000670190916801A0916901B0916A010196A9
:10078000A11DB11D8093670190936801A093690139
:10079000B0936A01BF91AF919F918F913F912F913B
:1007A0000F900FBE0F901F90189526E8230F02960A
:1007B000A11DB11DD2CFCF93DF93CDB7DEB7A397E5
:1007C0000FB6F894DEBF0FBECDBF789484B58260BB
:1007D00084BD84B5816084BD85B5826085BD85B5E5
:1007E000816085BD80916E00816080936E00109263
:1007F00081008091810082608093810080918100DE
:10080000816080938100809180008160809380006E
:100810008091B10084608093B1008091B0008160CC
:100820008093B00080917A00846080937A008091F8
:100830007A00826080937A0080917A008160809350
:100840007A0080917A00806880937A001092C100CB
:1008500082E00E94E5028EE291E00E943C02E0917B
:10086000F101E23008F078C0E150F0E0E252FE4FD2
:10087000848980680E94DF0281E491E00E943C024A
:100880000E94DB014B015C0150EDC52E57E0D52ED7
:10089000E12CF12C0E94DB01681979098A099B0976
:1008A000683E734081059105A8F321E0C21AD10882
:1008B000E108F10838EE830E33E0931EA11CB11C51
:1008C000C114D104E104F10429F7812C912C5401C5
:1008D00083944AE0C42ED12CE12CF12C81E00E94BB
:1008E000DF028BE39FE10197F1F781E08093DB0169
:1008F0008FB7F89440916B0150916C0160916D013C
:1009000070916E018FBF8091CB019091CC01A0912D
:10091000CD01B091CE01481B590B6A0B7B0B809126
:10092000D7019091D801B0E0A0E084179507A60701
:10093000B70708F020C110E08091D501181770F4B6
:10094000E091D101F091D201E10FF11D62E08081CF
:100950000E949F011F5FF0CFE1E087CF312C809193
:10096000D601381608F066C0032D10E0E091D301DF
:10097000F091D401E00FF11F61E080810E949F019E
:10098000E091D301F091D401E00FF11F60E080818C
:100990000E94710124013501032C04C0440C551C34
:1009A000661C771C0A94D2F75BA24AA2409450942A
:1009B000212C8091D501281630F5622C712CE09104
:1009C000D101F091D201E60DF71D80810E9448010E
:1009D000F3013496892B71F4EE0FFF1FE159FE4F9E
:1009E000808191812AA13BA1822B932B91838083CB
:1009F0002394DFCFEE0FFF1FE159FE4F80819181DD
:100A000084219521F3CFE091D301F091D401E00F3F
:100A1000F11F61E080810E9471018091D30190916A
:100A2000D401080F191F60E0F80180810E949F0126
:100A3000339495CF0FE611E0F801878D90A1892BB3
:100A400031F4148E2FEF3FEF368F258F11A236969B
:100A500031E0EB3AF30789F7712C8091D5017816D4
:100A600008F053C0612C472C512C440C551CC2017A
:100A700089589E4F2C012091D601621608F043C080
:100A8000F20160817181062C02C0769567950A9407
:100A9000E2F7729E90011124260D311DEFE6F1E080
:100AA00080E0458D568D2417350709F4C1C08F5F4E
:100AB00036968A30B1F760FF24C0EFE6F1E090E0AF
:100AC00080E0448D411118C0E091CF01F091D00138
:100AD000E20FF31F408156E0589FF001599FF00D3F
:100AE0001124E159FE4F448F368F258F10A2178EA7
:100AF00061E00E94AF0005C0019636968A309105EC
:100B000001F76394B8CF7394A8CF80E0F80191A166
:100B10009111892F0A5F1F4FF1E00B3A1F07B1F7C0
:100B20009FB7F89440916B0150916C0160916D01F9
:100B300070916E019FBF4093CB015093CC016093A5
:100B4000CD017093CE018823B1F08091900188236C
:100B500091F080918E0190918F01019761F48091C5
:100B60008B0181110BC020E030E0232B09F4B6CEBD
:100B70000E940000B3CE1092DB01F5CF80E591E03A
:100B80000E943C02E091F101E230D0F5E150F0E04A
:100B9000E252FE4F848980680E94DF024090640127
:100BA00050906501052C000C6608770877FE2AC076
:100BB00041E06DE28EED91E00E948C022227332706
:100BC000A901241935094609570919A28E010F5D9B
:100BD0001F4FCA01B901A70196010E949006605DEE
:100BE000F80162938F01211531054105510589F7FF
:100BF0000115110509F4B7CFC8010E943C02B3CF1B
:100C0000E1E0C5CFA301920119A28E010F5D1F4F34
:100C1000CA01B901A70196010E949006605DF80122
:100C200062938F01211531054105510589F7E0CF08
:100C300061705FCF10927101109275011092740172
:100C40001092760188E291E09093700180936F0199
:100C5000EBE8F1E01082148213821582369681E06F
:100C6000E73CF807B9F784E091E09093D2018093D4
:100C7000D10180E091E09093D4018093D30184E08E
:100C80008093D5018093D60188E091E09093D001C4
:100C90008093CF018AE090E09093D8018093D701B0
:100CA00084EF91E09093DA018093D9011092DD01F5
:100CB0001092DC011092CB011092CC011092CD0168
:100CC0001092CE011092DB011092E1011092E0012E
:100CD0008CE191E09093DF018093DE018EE08093C0
:100CE000E2018FEF8093E3018FE08093E40180E1E4
:100CF0008093E50181E18093E60182E18093E70141
:100D000083E18093E8011092E9011092EA011092C8
:100D1000EB011092EC011092ED0181E00C94E502E0
:100D2000A1E21A2EAA1BBB1BFD010DC0AA1FBB1FEF
:100D3000EE1FFF1FA217B307E407F50720F0A21B61
:100D4000B30BE40BF50B661F771F881F991F1A94CE
:100D500069F760957095809590959B01AC01BD01F8
:100D6000CF010895EE0FFF1F0590F491E02D099437
:100D7000F894FFCF04050607000102033738394411
:100D800034353643313233422A30234100000000EB
:100D90008B030B023902380200000000000204023B
:100DA000080241726475696E6F2043616C63756CF3
:100DB00061746F7200427920536169204B726973CC
:100DC000686E6100546865205072657373656420B5
:080DD0004B6579203A20000078
:107E0000112484B714BE81FFF0D085E080938100F7
:107E100082E08093C00088E18093C10086E0809377
:107E2000C20080E18093C4008EE0C9D0259A86E02C
:107E300020E33CEF91E0309385002093840096BBD3
:107E4000B09BFECF1D9AA8958150A9F7CC24DD24C4
:107E500088248394B5E0AB2EA1E19A2EF3E0BF2EE7
:107E6000A2D0813461F49FD0082FAFD0023811F036
:107E7000013811F484E001C083E08DD089C08234E0
:107E800011F484E103C0853419F485E0A6D080C0E4
:107E9000853579F488D0E82EFF2485D0082F10E0AE
:107EA000102F00270E291F29000F111F8ED06801E7
:107EB0006FC0863521F484E090D080E0DECF843638
:107EC00009F040C070D06FD0082F6DD080E0C81688
:107ED00080E7D80618F4F601B7BEE895C0E0D1E017
:107EE00062D089930C17E1F7F0E0CF16F0E7DF06D8
:107EF00018F0F601B7BEE89568D007B600FCFDCFD4
:107F0000A601A0E0B1E02C9130E011968C91119780
:107F100090E0982F8827822B932B1296FA010C0160
:107F200087BEE89511244E5F5F4FF1E0A038BF0790
:107F300051F7F601A7BEE89507B600FCFDCF97BE46
:107F4000E89526C08437B1F42ED02DD0F82E2BD052
:107F50003CD0F601EF2C8F010F5F1F4F84911BD097
:107F6000EA94F801C1F70894C11CD11CFA94CF0C13
:107F7000D11C0EC0853739F428D08EE10CD085E9AC
:107F80000AD08FE07ACF813511F488E018D01DD067
:107F900080E101D065CF982F8091C00085FFFCCF94
:107FA0009093C60008958091C00087FFFCCF809118
:107FB000C00084FD01C0A8958091C6000895E0E648
:107FC000F0E098E1908380830895EDDF803219F02E
:107FD00088E0F5DFFFCF84E1DECF1F93182FE3DFCA
:107FE0001150E9F7F2DF1F91089580E0E8DFEE27F6
:047FF000FF270994CA
:027FFE00040479
:00000001FF
